S0150000436F6D6D756E69636174696F6E2E73726563B9
S11300000C942A000C943C000C943C000C943C008E
S11300100C943C000C943C000C943C000C943C006C
S11300200C943C000C943C000C943C000C943C005C
S11300300C943C000C943C000C943C000C943C004C
S11300400C943C000C943C000C943C000C943C003C
S11300500C943C0011241FBECFE5D8E0DEBFCDBF19
S113006020E0A0E6B0E001C01D92A636B207E1F799
S11300700E94C7000C9431010C9400004F3FC1F45E
S1130080813051F028F0823059F0833069F00895BE
S11300908AB3682B6ABB089587B3682B67BB08953E
S11300A084B3682B64BB089581B3682B61BB089546
S11300B0813059F028F0823069F0833081F008955E
S11300C08AB3609568236ABB089587B360956823F3
S11300D067BB089584B36095682364BB089581B3B6
S11300E06095682361BB08954F3FC1F4813051F09E
S11300F028F0823059F0833069F008958BB3682B6F
S11301006BBB089588B3682B68BB089585B3682BCF
S113011065BB089582B3682B62BB0895813059F0A2
S113012028F0823069F0833081F008958BB36095B4
S113013068236BBB089588B36095682368BB0895F2
S113014085B36095682365BB089582B36095682381
S113015062BB0895E0E6F0E01082118212821382FD
S113016014821582CF010E9403010E942B0180E0BA
S11301700E94C90080E00E94E4008FEF8ABB0E94C5
S11301802D018BBB682F80E00E94F500F8CF0E9400
S1130190AA00882319F0813061F008954FEF6FE0D1
S11301A081E00E943E004FEF64E083E00E943E0045
S11301B008954FEF6FE081E00E943E004FEF68E04A
S11301C083E00E943E000895882319F0813039F0BD
S11301D008954FEF64E083E00E94740008954FEFA8
S11301E068E083E00E9474000895CF93C62F40E036
S11301F06FE081E00E9474004FEF6C2F81E00E9459
S11302007400CF910895FC018081882339F08031F6
S113021049F4BC9ABD9ABF9ABE9804C0BC98BD98D4
S1130220BF98BE9A9DB18281892B8DB99DB184817D
S1130230892B8DB99DB18081892B8DB99DB1858123
S1130240892B8DB99DB18181892B8DB99EB1838113
S1130250892B8EB908956E9A0895779BFECF8FB13E
S10902600895F894FFCF9D
S9030000FC
