:100000000C942A000C9447000C9447000C94470071
:100010000C9447000C9447000C9447000C94470044
:100020000C9447000C9447000C9447000C948E00ED
:100030000C9447000C9407020C9414020C94470093
:100040000C9447000C9447000C9447000C94470014
:100050000C94470011241FBECFE5D8E0DEBFCDBF12
:1000600010E0A0E6B0E0ECE4F4E002C005900D92F0
:10007000A836B107D9F720E0A8E6B0E001C01D928C
:10008000A237B207E1F70E94FA000C9424020C9404
:1000900000004F3FA1F4813049F028F0823049F050
:1000A000833051F008958AB3682B14C087B3682B4E
:1000B00016C084B3682B18C081B3682B1AC0813076
:1000C00059F028F0823069F0833081F008958AB3C6
:1000D000609568236ABB089587B36095682367BB02
:1000E000089584B36095682364BB089581B36095D7
:1000F000682361BB0895813049F030F0823041F0CF
:10010000833051F480B305C089B303C086B301C006
:1001100083B3682381E009F480E008951F920F9271
:100120000FB60F9211248F939F9380916800909146
:100130006900019690936900809368009F918F9168
:100140000F900FBE0F901F901895CF93DF931F92C3
:10015000CDB7DEB70E94EB0180E00E94FC0081E099
:100160000E94FC0010926C0010926D0010926E00C4
:1001700010926F0010927000109271008CE690E067
:100180000E9456010E947F0181E080936B00E12C68
:10019000FF24F39400E010E080E00E941401D82EC8
:1001A00081E00E94140191E0D91203C00023E1F024
:1001B00001E0813069F4F11009C08E2D0E94050222
:1001C000E12CFF24F39400E010E002C0FF24F3943C
:1001D000CE0101960E9481018130F1F21123E1F2FA
:1001E0008981E80E11E0D8CF813039F3F12C01E09C
:1001F00011E0EECF0E94A500813051F028F082304E
:1002000059F0833061F0089540E060E182E00AC077
:1002100040E064E081E006C040E064E002C040E00D
:1002200068E080E00C944900813099F028F0823039
:10023000E9F0833039F137C060E182E00E947B0051
:10024000813089F582E390E00E94C70160E182E09D
:1002500025C064E081E00E947B00813021F582E3CB
:1002600090E00E94C70164E081E018C064E080E093
:100270000E947B008130B9F482E390E00E94C701C4
:1002800064E00BC068E080E00E947B00813059F49C
:1002900082E390E00E94C70168E080E00E947B005A
:1002A00091E0813009F090E0892F0895FC01808170
:1002B000882341F0803151F4BC9ABD9ABF9ABE9810
:1002C000C49804C0BC98BD98BF98BE9A9DB1828165
:1002D000892B8DB99DB18481892B8DB99DB1808188
:1002E000892B8DB99DB18581892B8DB99DB1818176
:1002F000892B8DB99EB18381892B8EB908956E9A11
:100300000895779B05C02FB1FC01208380E00895FC
:1003100081E00895CF92EF920F9340936A0015BC4D
:1003200014BC99B79F7B99BF99B79F7799BF98B72E
:10033000906498BF92B5977F92BD882329F088304A
:10034000A9F485B5886001C085B5682B65BD89B7FE
:10035000C82AC9BE32B581E090E001C0880FEA9496
:10036000EAF78095832382BD24BD03BD0F91EF90F2
:10037000CF90089585B5887F85BD95B580916A0039
:10038000892B85BD089585B5887F85BD0895CF9259
:10039000EF920F93CF93DF93EC01C12CE12C00E09F
:1003A00026E044E060E080E00E948A010E94BA01F9
:1003B00096E0209749F008B606FEFDCF94BD88B7B9
:1003C000806488BF2197F5CFDF91CF910F91EF9097
:1003D000CF900C94C30190B5E0E6F0E08081892BCA
:1003E00086609281892B9381892B80BD2AB184817B
:1003F0009581892B887F822B8AB99BB18681837EE8
:10040000892B8BB987E689B908958CB908957894BA
:100410001F920F920FB60F92112410926B000F9043
:100420000FBE0F901F90189578941F920F920FB6E1
:100430000F9211248F9381E080936B008F910F9026
:0C0440000FBE0F901F901895F894FFCF8E
:08044C0000000080A018000070
:00000001FF
