:100000000C942A000C9447000C9447000C94470071
:100010000C9447000C9447000C9447000C94470044
:100020000C9447000C9447000C9447000C94A400D7
:100030000C9447000C9452020C945F020C944700FD
:100040000C9447000C9447000C9447000C94470014
:100050000C94470011241FBECFE5D8E0DEBFCDBF12
:1000600010E0A0E6B0E0E2EEF4E002C005900D92F0
:10007000A836B107D9F720E0A8E6B0E001C01D928C
:10008000A337B207E1F70E941D010C946F020C9494
:1000900000004F3FA1F4813049F028F0823049F050
:1000A000833051F008958AB3682B14C087B3682B4E
:1000B00016C084B3682B18C081B3682B1AC0813076
:1000C00059F028F0823069F0833081F008958AB3C6
:1000D000609568236ABB089587B36095682367BB02
:1000E000089584B36095682364BB089581B36095D7
:1000F000682361BB0895813049F030F0823041F0CF
:10010000833051F480B305C089B303C086B301C006
:1001100083B3682381E009F480E00895813049F0D9
:1001200028F0823049F0833051F008954FEF60E1BC
:1001300008C04FEF60E205C04FEF60E402C04FEF30
:1001400060E881E00C9449001F920F920FB60F9265
:1001500011248F939F93809168009091690001967C
:1001600090936900809368009F918F910F900FBECC
:100170000F901F9018950E94340280E00E941F018A
:1001800081E00E941F01EE24E39400E027EF45E0A8
:1001900060E080E00E94A8010E94CA0180E1809393
:1001A0006D0010926E0010926F001092700010920D
:1001B0007100109272008DE690E00E9479010E9419
:1001C000A20180E00E948E000E944E02C0EDC80F86
:1001D000D0E080E00E943701182F81E00E943701B3
:1001E000113041F4D1110FC091E0C43609F490E010
:1001F000C90F09C0813041F4D11105C081E0C1119E
:1002000001C080E0C81BD1E0809168009091690036
:10021000CD97FCF21092690010926800EE24E394EE
:1002200000E027EF45E060E080E00E94A8010E9426
:10023000CA018C2F0E94A401CBCF0E94BB00813049
:1002400051F028F0823059F0833061F0089540E099
:1002500060E182E00AC040E064E081E006C040E086
:1002600064E002C040E068E080E00C944900813026
:1002700099F028F08230E9F0833039F137C060E13D
:1002800082E00E947B00813089F582E390E00E9449
:10029000100260E182E025C064E081E00E947B0002
:1002A000813021F582E390E00E94100264E081E059
:1002B00018C064E080E00E947B008130B9F482E3E2
:1002C00090E00E94100264E00BC068E080E00E94B1
:1002D0007B00813059F482E390E00E94100268E0D4
:1002E00080E00E947B0091E0813009F090E0892F4E
:1002F0000895FC018081882341F0803151F4BC9A3B
:10030000BD9ABF9ABE98C49804C0BC98BD98BF98C7
:10031000BE9A9DB18281892B8DB99DB18481892B33
:100320008DB99DB18081892B8DB99DB18581892B36
:100330008DB99DB18181892B8DB99EB18381892B26
:100340008EB908956E9A08958FB9779BFECF089560
:10035000EF920F93789440936B0013BE12BE99B73F
:100360009E7F99BF99B79D7F99BF98B7916098BFBD
:10037000882329F0883059F483B7886001C083B797
:10038000682B63BF89B7E82AE9BE22BF0CBF0F9173
:10039000EF90089583B7887F83BF93B780916B00F8
:1003A000892B83BF0895CF92EF920F9340936A00F9
:1003B00015BC14BC99B79F7B99BF99B79F7799BF1C
:1003C00098B7906498BF92B5977F92BD882329F023
:1003D0008830A9F485B5886001C085B5682B65BDF6
:1003E00089B7C82AC9BE32B581E090E001C0880F44
:1003F000EA94EAF78095832382BD24BD03BD0F9163
:10040000EF90CF90089585B5887F85BD95B5809193
:100410006A00892B85BD089585B5887F85BD0895BF
:10042000CF92EF920F93CF93DF93EC01C12CE12C8D
:1004300000E026E044E060E080E00E94D3010E94FA
:10044000030296E0209749F008B606FEFDCF94BD62
:1004500088B7806488BF2197F5CFDF91CF910F9146
:10046000EF90CF900C940C0290B5E0E6F0E0808124
:10047000892B86609281892B9381892B80BD2AB13B
:1004800084819581892B887F822B8AB99BB1868153
:10049000837E892B8BB987E689B908955F9BFECF50
:1004A0008CB1089578941F920F920FB60F92112479
:1004B00010926C000F900FBE0F901F9018957894BB
:1004C0001F920F920FB60F9211248F9381E08093A9
:1004D0006C008F910F900FBE0F901F901895F8949D
:0204E000FFCF4C
:0804E20000000080101800006A
:00000001FF
